:020000040800F2
:10000000C0120020D101000893340008C32B00085F
:1000100091340008C5090008353E000800000000C2
:10002000000000000000000000000000390100088E
:10003000C7090008000000007D01000825370008FE
:10004000EB010008EB010008EB010008EB010008E0
:10005000EB010008EB010008EB010008EB010008D0
:10006000EB010008EB010008EB010008EB010008C0
:10007000EB010008EB010008EB010008EB010008B0
:10008000EB010008EB010008EB010008EB010008A0
:10009000EB010008EB010008EB010008EB01000890
:1000A000EB010008EB010008EB010008EB01000880
:1000B000F537000801380008EB010008EB010008E3
:1000C000EB010008EB010008EB010008EB01000860
:1000D000EB010008EB010008353D0008EB010008CA
:1000E000C9090008EB010008EB010008EB0100085A
:1000F000EB01000800000000EB010008EB01000824
:10010000EB010008EB010008EB010008EB0100081F
:10011000EB010008EB010008EB0100080000000003
:10012000EB010008DFF80CD000F04AFB0048004764
:1001300039470008C0120020224B19680868B0E84F
:10014000F00F80F30988BFF36F8F4FF0000080F34A
:1001500011884EF00D0E7047000000000648006840
:10016000006880F3088862B661B6BFF34F8FBFF3B3
:100170006F8F00DF00BF00BF08ED00E0EFF30980E4
:10018000BFF36F8F0F4B1A6820E9F00F106008B5AE
:100190004FF0500080F31188BFF34F8FBFF36F8F84
:1001A00005F0ECF84FF0000080F31188BDE808403E
:1001B00019680868B0E8F00F80F30988BFF36F8F03
:1001C000704700BF50000020EFF30580704700002B
:1001D0000648804706480047FEE7FEE7FEE7FEE7E1
:1001E000FEE7FEE7FEE7FEE7FEE7FEE7A5370008CD
:1001F0002501000840EA01039B0703D009E008C974
:10020000121F08C0042AFAD203E011F8013B00F8DB
:10021000013B521EF9D27047D2B201E000F8012B27
:10022000491EFBD270470022F6E710B513460A4676
:1002300004461946FFF7F0FF204610BD421C10F897
:10024000011B0029FBD1801A704710B5002200E085
:10025000521C835C8C5CA34201D1002BF8D1D8B234
:10026000E1B2401A10BD30B503461D783DB10A46D3
:1002700012F8014B1CB1AC42FAD15B1CF5E7181A1D
:1002800030BD70B5064603F0E7FD046805460A2256
:100290000021304600F06DF82C6070BD420005D0A2
:1002A000C0F3C7525242914201DC0020704700EB7C
:1002B000C150704796230022114600F09BB800F011
:1002C000004230F000400AD0C10D01F56071C0F36A
:1002D000160042EA0151C20840071143704700204E
:1002E0000146704730B50B4601460020202201240C
:1002F00009E021FA02F59D4205D303FA02F5491BF4
:1003000004FA02F52844151EA2F10102F1DC30BD09
:100310002DE9F05F0546002092469B46884606463A
:10032000814640241BE0284641464746224600F0CD
:1003300068FA53465A46C01A914110D311461846DE
:10034000224600F04FFA2D1A67EB01084F4622466D
:100350000120002100F046FA17EB00094E41201E53
:10036000A4F10104DFDC484631462A464346BDE895
:10037000F09F2DE9F04791460F468046044600263F
:1003800014F8015B2DB100F05FFA0068405DC00712
:10039000F6D12B2D02D02D2D18D0641E4A46394699
:1003A000204600F055FA27B13968A14201D1C7F8BB
:1003B000008071054FF002040BD54042002803DD98
:1003C00003F04AFD0460A007BDE8F08746F48066AC
:1003D000E4E70028F8DA03F03FFD04606FF0004026
:1003E000F2E70029A8BF7047401C490008BF20F071
:1003F0000100704710B4B0FA80FC00FA0CF050EA2B
:10040000010404BF10BC704749B1CCF1200421FAAB
:1004100004F411FA0CF118BF012121430843A3EBA6
:100420000C01CB1D4FEA00614FEA102042BF0020B3
:1004300010BC704700EBC35010440029A4BF10BC8F
:100440007047401C490008BF20F0010010BC7047F5
:100450002DE9FE4F804681EA0300C00F0C46009054
:1004600021F0004123F00045B8EB0200A94105D27C
:100470004046214690461C460B46024623F000406B
:10048000104347D0270DC7F30A00C3F30A51029067
:10049000401A019040286BDAC3F3130040F4801B2C
:1004A0000098924620B10023D2EB030A63EB0B0BBA
:1004B00001985946C0F14002504600F093F90646B3
:1004C0000D4650465946019A00F0ABF910EB080072
:1004D0006141002487EA115284EAE7731A4340D04D
:1004E000009A62B3019A012A4FEA075215DC001BF9
:1004F00061EB02014FF0004202EA0752CDE90042EF
:10050000001C41F5801132462B4600F0FFF903B084
:10051000BDE8F08F40462146F9E7001B61EB020180
:10052000001C41F5801300185B412018A2F500174C
:1005300047EB030140EAD570B6196D4111E06D0833
:100540004FEA360645EAC0754FEA0752001B61EBD9
:100550000201001C41F5801149084FEA30000019E2
:10056000514132462B4603B0BDE8F04F00F0BFB911
:100570000098012240000023D0EB020263EBE073FD
:10058000009821464FEAE074B8EB000061EB0401EB
:10059000E9E783F000435BE781F0004158E72DE98C
:1005A000FE4F81EA030404F0004421F0004100946E
:1005B0004FF0000B23F0004350EA01045ED052EAF2
:1005C00003045BD0C3F30A54C1F30A552C44A4F2CC
:1005D000F3340194A0FB0254C1F3130141F48011E0
:1005E000C3F3130343F4801301FB024400FB034EE7
:1005F000840A970A44EA815447EA8357A4FB0768B0
:1006000002958D0A05FB07854FEA932C04FB0C54D9
:100610002705029D4FEA065847EA1637B5EB08054D
:100620006EEB070C870E920E47EA811742EA83129F
:10063000A7FB0201B6EB0B0164EB00042B0D43EAB0
:100640000C335E1844EB1C50DA465146E7FB0201BE
:10065000C5F313044FEA0B3343EA14534FEA043251
:10066000019C43EA0603A4F10C040294009CCDE92A
:1006700000B400F04BF903B0BDE8F08F0020014654
:10068000F9E72DE9F04D81EA030404F0004B21F075
:10069000004514464FF0000A23F0004150EA0502DD
:1006A00020D054EA01021DD0C5F30A570246C5F313
:1006B0001303C1F31300C1F30A5640F4801543F449
:1006C0008013A7EB0608101BD64608F2FD3873EB23
:1006D000050002D308F1010801E092185B41B8F16E
:1006E000000F03DA00200146BDE8F08D00204FF432
:1006F0008011064684460EE0171B73EB050705D3F1
:10070000121B63EB050306434CEA010C49084FEA50
:10071000300092185B4150EA0107EDD152EA030024
:1007200012D082EA040083EA0501084305D0101BB9
:10073000AB4106D20122002306E000224FF0004325
:1007400002E06FF0010253101AEB06004CEB085167
:1007500010EB0A0041EB0B01BDE8F04D00F0C7B80B
:10076000C1F30A52C1F3130140F2FF3341F4801187
:100770009A4202DA00200146704740F233439A421F
:10078000A2F2334202DC524200F03BB800F02AB839
:1007900030B5041E71F1000404DB4FF00044404208
:1007A00064EB0101141E73F1000405DB1C464FF0DD
:1007B0000043524263EB0403994208BF904230BDAC
:1007C000064C074D06E0E06840F0010394E807009E
:1007D00098471034AC42F6D3FFF7A8FC985E0008A7
:1007E000B85E0008202A04DB203A00FA02F100205B
:1007F00070479140C2F1200320FA03F3194390405F
:100800007047202A04DB203A21FA02F000217047C9
:1008100021FA02F3D040C2F1200291400843194668
:100820007047202A06DBCB17203A41FA02F043EA50
:10083000E07306E041FA02F3D040C2F12002914099
:10084000084319467047000000487047685E00087A
:100850002DE9F05F82460078002715468B460AF1A5
:100860000104B946302801D09DB113E014F8010B02
:100870000127782803D0582801D045B10AE00DB1EE
:10088000102D07D10027102514F8010B02E00825D0
:1008900000E00A250026B0460EE005FB080005FB37
:1008A00006F1012701EB10461FFA80F8B6F5803FEC
:1008B00000D3B94614F8010B294600F075F800285A
:1008C000EBDABBF1000F05D00FB1641E00E0544617
:1008D000CBF80040B9F1000F06D003F0BDFA0221B9
:1008E0000160C81EBDE8F09F48EA0640FAE710B56F
:1008F000141E73F1000408DA401C41F10001921843
:100900005B411A4301D120F0010010BD2DE9F04DEB
:1009100092469B4611B1B1FA81F202E0B0FA80F240
:1009200020329046FFF75EFF04460F4640EA0A0079
:1009300041EA0B0153465A46084313D0114653EA85
:10094000010019D0C8F140025046FFF75AFF054692
:100950000E46504659464246FFF744FF084305D02D
:10096000012004E020463946BDE8F08D0020054313
:1009700046EAE0762C4337430A986305E40AA0EB85
:1009800008000022FD0A44EA47540A3002D500203C
:100990000146E9E7010510196941DDE9084500193B
:1009A0006941BDE8F04DA2E73A2800D2303820F086
:1009B0002002412A01D3A2F13700884201D34FF02F
:1009C000FF307047FEE770474FF4005000F0DABB8D
:1009D000074900224A6107490B6843F400730B6022
:1009E0000B6843F008030B6020F0FF0002607047C3
:1009F000B4010020043C0240134A00211068C305E2
:100A0000124804D5416941F0020141619115136812
:100A10009B0505D5436943F00103436141F400712F
:100A200013681B0505D5436943F00403436141F492
:100A300000611368DB0405D5436943F0200343617B
:100A400041F4805111607047183C0240B40100200D
:100A500070B5054600F084FC0646134C09E0681C9E
:100A600007D025B100F07CFC801BA84201D90320EF
:100A700070BD2068C007F2D12068800701D5022030
:100A800020602068C00508D42068000505D42068CF
:100A9000C00402D42068800503D5FFF7ADFF012014
:100AA00070BD002070BD0000183C0240054C4FF4A2
:100AB0007A752021204600F049FC284603F0D8FE34
:100AC000F7E70000000002408CB02C4E4FF4FA789B
:100AD0006C464146B06903F091FF002849D106A851
:100AE00002F04EFB09A802F0E9FA708845F2AA511B
:100AF000401C7080ADF80010ADF8020006AF20A0D9
:100B000003F09AF9002504EB450138888880B7F98D
:100B100000101FA003F090F96D1CEDB2BF1C062D54
:100B2000F1D30DF12A07002504EB4501388808822E
:100B3000B7F9001016A003F07FF96D1CEDB2BF1CD1
:100B4000032DF1D314A003F077F900214FEA01003F
:100B500034F91020401C5140C0B20A28F8D3ADF837
:100B6000161006226946706802F088FD7068183019
:100B70007060052003F07CFEABE70000040000205D
:100B800039206178697320646174613A2000000043
:100B90002537642C200000000D0A00000EB54FF030
:100BA000000A444E444C4FF0FF3BD0464FF0010941
:100BB0005A466846616903F06BFEDDE900051028BE
:100BC0006BD13078012801D184F800802078401C56
:100BD000C0B22070012822D1284638A1FFF735FB8A
:100BE00078B1284638A1FFF730FB00281BD038A089
:100BF00003F022F93CA003F01FF900BF84F8008045
:100C00004BE046A003F018F94C4801F0F3FC4CA06F
:100C100003F012F956A003F00FF986F8008020784F
:100C2000022802D01DE060A03CE0284666A1FFF744
:100C30001AFB07462846FFF701FB8742284614D1D6
:100C4000FFF71FFB4700790862A003F0F5F839466B
:100C5000504602F06FFC6CA003F0EEF822A003F007
:100C6000EBF8207803280ED017E017A1FFF7EDFA74
:100C70000028D8D06CA003F0DFF83DA003F0DCF82A
:100C800084F8009009E028460FA1FFF7DEFA40B192
:100C900072A003F0D1F802202070052003F0E8FDD7
:100CA00086E77BA003F0C8F8244801F097FC86F89B
:100CB0000090A3E70000002004000020726561643A
:100CC00073616D706C65000072657374617274009D
:100CD0000D0A436F6D6D616E6420696E76616C699B
:100CE00064210D0A000000000D53656E64207265DA
:100CF000737461727420636F6D6D616E64206F72C6
:100D00002050726573732055534552204B4559202E
:100D1000746F2065786974210D0A00000D0A5573FF
:100D200065722072657175657374696E6720736191
:100D30006D706C65732E2E2E0D0A0000F0000020E1
:100D40000D0A486F77206D616E79207365636F6E51
:100D5000647327206461746120746F20726561641C
:100D60002066726F6D20666C6173683F0D0A00002B
:100D70000D4F722073656E642072657374617274B6
:100D800020636F6D6D616E64206F722050726573A9
:100D9000732055534552204B455920746F20657878
:100DA0006974210D0A0000000D0A526573746172A6
:100DB0007420646174612073616D706C696E672E5C
:100DC0002E2E0D0A00000000303132333435363714
:100DD000383900000D0A547279696E6720746F20EB
:100DE00072656164202564207365636F6E64732788
:100DF0002073616D706C65732C2061732062656C6B
:100E00006C6F773A0D0A00000D0A53616D706C65C6
:100E10002072656164696E672066696E69736865D2
:100E200064210D0A000000000D0A496E70757420DF
:100E3000612076616C69642073697A652C2073681F
:100E40006F756C64206F6E6C7920696E636C75646D
:100E500065206E756D626572210D0A000D0A53657D
:100E60006E64207265737461727420636F6D6D615E
:100E70006E64206F72205072657373205553455213
:100E8000204B455920746F2065786974210D0A0044
:100E90000D0A526573746172742064617461205329
:100EA000616D706C696E672E2E2E0D0A00000000B9
:100EB0002DE9F0471C4E05460F46307C012808D02E
:100EC000012030744CF250384046FFF7C1FD18B194
:100ED00027E00220BDE8F0874FF0FF313960C146BE
:100EE000DFF848806C6816E02046FFF771FD484641
:100EF000FFF7AEFDD8F8002022F00802C8F8002065
:100F0000D8F8002022F40072C8F8002008B13C6034
:100F100007E004F58074D5E9011201EB0221A1423A
:100F2000E2D800213174D5E7B4010020043C02402E
:100F30000348016841F00201016000207047000091
:100F4000043C02402DE9F0410C4C16460F46207C33
:100F5000012809D0012020744CF250384046FFF798
:100F600077FD002518B107E00220BDE8F08165613A
:100F70003E604046FFF76CFD2574F6E7B4010020A3
:100F80000B480168890710D50068C00705D00848DC
:100F900008490830016008490160054807490C30DC
:100FA0000160074901600020704701207047000080
:100FB000043C0240EFCDAB8905040302BFAE9D8C1B
:100FC000161514132DE9F04F002301270F24DFF825
:100FD00018A182E007FA03F616EA01027CD0056840
:100FE0004FEA43084FF0030C0CFA08FC25EA0C0505
:100FF0000560DD0800EB8508C346D8F820905D0742
:101000004FEAD56804FA08F529EA0509CBF82090DB
:10101000856825EA0C0585604568B5434560C56867
:1010200025EA0C05C56023F0030606EB0A05D5F892
:1010300008C09E07360F04FA06F909EA0C08DFF823
:10104000ACC0604502D14FF0000C2BE0DFF8A0C02F
:10105000604502D14FF0010C24E0DFF898C06045F4
:1010600002D14FF0020C1DE0DFF88CC0604502D1C8
:101070004FF0030C16E0DFF884C0604502D14FF05A
:10108000040C0FE0DFF878C0604502D14FF0050C8A
:1010900008E0DFF870C0604502D14FF0060C01E0B7
:1010A0004FF0070C0CFA06FCC44515D1D5F808C062
:1010B0002CEA090CC5F808C0134D2E6896432E6023
:1010C0002D1D2E6896432E602D1D2E6896432E6092
:1010D0002D1D2E6896432E605B1C31FA03F27FF4BF
:1010E00079AFBDE8F08F0000000001400000024031
:1010F0000004024000080240000C024000100240C0
:1011000000140240001802400004014010B5B0F580
:10111000005F17D10C49087850B10020087048B121
:101120000AA002F089FEBDE810400F4801F056BA4F
:101130000120F3E70DA002F07FFEBDE810400A4851
:1011400001F058BA10BD0000000000200D0A5374D1
:1011500061727420646174612073616D706C696E7A
:10116000672E2E2E0D0A0000F00000200D0A537489
:101170006F7020646174612073616D706C696E675B
:10118000210D0A00044910B50A68024202D0086025
:10119000FFF7BCFF10BD0000140401402DE9F84F1B
:1011A000DFF880B100234FF0010C4FF0030A4FF03D
:1011B0000F090BF1040EAEE00CFA03F614EA060276
:1011C00070D04C68022C01D0122C11D1DC0800EB3D
:1011D00084073C6A5D07ED0E09FA05F824EA080465
:1011E000D1F8108008FA05F848EA0408C7F820800A
:1011F00007685D0091F804800AFA05F408F0030816
:10120000A74308FA05F848EA0708C0F800804F68C5
:10121000012F05D0022F03D0112F01D0122F11D191
:101220008768D1F80C80A74308FA05F848EA070850
:10123000C0F808804768B7430E79C6F300169E4091
:101240003E434660C668A6438C68AC403443C460E5
:101250004C68E4005ED5344C256845F001052560F6
:10126000246823F0030504F0010400942F4C2E1988
:10127000B4689D072F0F09FA07F5AC432C4DA8421F
:1012800001D100251FE02B4DA84201D101251AE014
:10129000294DA84201D1022515E0284DA84202D1CE
:1012A000032510E036E0264DA84201D104250AE0CE
:1012B000244DA84201D1052505E0234DA84201D1C6
:1012C000062500E00725BD402543B560DBF800405A
:1012D0005D464E689443F60300D514432C60DEF857
:1012E000004075464E689443B60300D514432C6005
:1012F0000C4D08352C684E689443F60200D5144313
:101300002C60084D0C352C684E689443B60200D50D
:1013100014432C605B1C0A681446DA407FF44CAF1F
:10132000BDE8F88F00040140203802400000014071
:10133000000002400004024000080240000C02408D
:1013400000100240001402400018024042694A4066
:10135000426170470AB1816170470904FBE70000F0
:1013600001480068704700002400002010B5040008
:1013700013D0242084F83D002068016821F0010189
:101380000160204600F06CFA0020206484F83D00E3
:1013900044F8300FA073207310BD012010BD000071
:1013A00070B504000DD094F83D00002520B984F8F4
:1013B0003C50204600F06AFA00F070FC4649884232
:1013C00001D2012070BD242184F83D1021680A68F3
:1013D00022F001020A6041492268B0FBF1F1536832
:1013E00023F03F030B4353603D4A6368934206D9A1
:1013F0004FF4967359434FF47A73B1FBF3F12368BA
:10140000491C1E6A26F03F06314319626168914209
:101410000BD84900B0FBF1F2C2F30B02042A01D24F
:10142000042019E0B0FBF1F016E0A368F3B301EB80
:10143000C10202EB0112B0FBF2F242F4804212054B
:1014400043D0A3B301EBC10202EB0111B0FBF1F0F9
:1014500040F4804040F400402168CA694CF6FF73B4
:101460009A431043C861D4E90701084321680A6818
:1014700022F0C00210430860D4E903100843216839
:101480008A6848F2FF339A4310438860D4E9050123
:1014900008432168CA6822F0FF021043C860206830
:1014A000016841F001010160256401E008E00EE0FF
:1014B000202084F83D00256384F83E50002070BD54
:1014C00001EB4102B0FBF2F2B9E70120C4E701EB06
:1014D0004101B0FBF1F0BDE780841E0040420F00E7
:1014E000A08601002DE9FF4F83B09A46DDE9108701
:1014F00093460446DDF84890FFF732FF054694F81E
:101500003D00202875D1B8F1000F7DD0002F7BD091
:10151000192301224FF002112046009501F001FD30
:101520000028EFD194F83C00012862D0012084F813
:101530003C0020680168C90703D1016841F001013E
:1015400001602068016821F400610160222084F8B4
:101550003D00402084F83E0000262664C4F8248024
:1015600067856C48E062608D2085CDE90095534623
:101570005A462046049901F0E5FB28B1206C84F816
:101580003C60042840D07DE0208DDFF88C8101286C
:1015900002D002280ED017E02068016821F4806193
:1015A00001602068416981690091016841F400711E
:1015B00001609FE02068016821F48061016020687B
:1015C000016841F400610160206841698069009010
:1015D00090E003286BD801280DD0022F4B464FF026
:1015E000000241462046009517D001F09AFC78BBD6
:1015F0002FE08CE008E02A464946204601F006FD2F
:1016000030B1206C20283DD0012007B0BDE8F08F1C
:1016100020680269606A411C17E001F082FCB8B9D9
:101620002068016841F40071016020680169606A06
:10163000421C62620170208D401E2085608D401E1C
:10164000608520680269606A411C616202704BE03B
:1016500018E02068016821F4806101602068026957
:10166000606A411C61620270208D401E2085608D81
:10167000401E60854B46002241462046009501F001
:1016800050FC08B10320C0E72068016841F40071F4
:10169000016020680169606A421C62620170208DED
:1016A000401E2085608D401E6085206817E02A4618
:1016B0004946204601F0AAFC0028A2D12068016911
:1016C000606A421C62620170208D401E2085608D20
:1016D000401E608520684169C94349070AD40169F1
:1016E000606A421C62620170208D401E2085608D00
:1016F000401E6085208D00287FF46BAF202084F889
:101700003D0084F83E6084F83C6000207DE70220C4
:101710007BE700000000FFFF040001002DE9FF4F00
:1017200083B09A46DDE9108793460446DDF8489079
:10173000FFF716FE064694F83D0020287DD1B8F14B
:10174000000F7BD0002F79D0192301224FF0021116
:101750002046009601F0E5FB00287DD194F83C007E
:10176000012879D0012084F83C0020680168C9076D
:1017700003D1016841F0010101602068016821F492
:1017800000610160212084F83D00402084F83E0083
:1017900000252564C4F8248067853048E062608DA8
:1017A0002085CDE9009653465A462046049901F01B
:1017B00041FB80B3206C84F83C5004284AD008E0F8
:1017C00032464946204601F052FC30B1206C0428D4
:1017D0003BD0032007B0BDE8F08F606A411C616216
:1017E000216800780861208D401E80B22085618DBF
:1017F000491E618521684A69D24352070BD468B1FA
:10180000606A421C626200780861208D401E20855B
:10181000608D401E6085208D0028D1D1324649461A
:10182000204601F057FB0028D0D154F83D0B016849
:1018300041F400710160202001E00DE00AE004F8AD
:101840001E09E57765770020C4E72068016841F448
:10185000007101600120BDE70220BBE70000FFFF2F
:1018600000680749884209D10648016821F400113F
:1018700001604FF440710448FFF7A4BB70470000BB
:1018800000540040243802400004024000B50068C3
:101890000E4987B0884217D14FF440700090122053
:1018A00001900120029003200390042004906946D7
:1018B0000748FFF773FC0748016841F40011016015
:1018C000006800F40010059007B000BD005400400F
:1018D000000402402438024002480168491C0160AB
:1018E000704700002400002010B5032000F0B4F879
:1018F000002000F005F800F03BF8002010BD0000CB
:1019000000B5014687B000221C2000F085F81C209D
:1019100000F076F81348016841F0010101600068A9
:1019200005A900F001000690684600F091F900F06A
:10193000B5F90D494FF08042B0FBF1F10B48491E5B
:101940000260416040F2E7320021C0E9032181607A
:1019500000F00AFE10B1012007B000BD034800F0FE
:101960003DFEF9E72438024040420F007C01002090
:10197000224808B5016841F000410160016801F0AA
:1019800000410091011F0A6842F001020A600968E3
:1019900001F001010091016841F08051016000688F
:1019A00000F080500090032000F056F8002211460D
:1019B0006FF00B0000F030F8002211466FF00A00C3
:1019C00000F02AF8002211466FF0090000F024F818
:1019D00000221146501F00F01FF800221146101F70
:1019E00000F01AF800220F21901E00F015F80022D6
:1019F0000F21BDE80840501E00F00EB82438024008
:101A000000F01F02012191404009800000F1E02018
:101A1000C0F8001170470000F0B40E4B1B680C4674
:101A2000C3F30223C3F10705042D00D90425191DB2
:101A3000072901D2002300E0DB1E012606FA05F18A
:101A4000491E214099409E40761E16403143F0BC0D
:101A500001F020BD0CED00E0064900F00702086827
:101A60004FF6FF03184040EA0220034A1043086083
:101A7000704700000CED00E00000FA052DE9F0478A
:101A8000DFF8BC8105460E46D8F8000000F00100E2
:101A9000B04214D2012E05D1D8F8001041F0040153
:101AA000C8F80010D8F8001021F001013143C8F83F
:101AB0000010D8F8000000F00100B04271D1287881
:101AC000604C800705D52068A96820F0F000084325
:101AD00020602878C00771D05A4A5A4B69680120A3
:101AE000083A2C33022910D003292ED001292FD0F7
:101AF0005FEA402797FAA7FCBCFA8CFC4CF0200C5C
:101B00005FEA5C1C04D0126803E04FF40037F1E791
:101B10001A6897FAA7F3B3FA83F303F01F03984008
:101B2000024262D0206820F0030008432060FFF7E3
:101B300017FC6968074641F28830022910D0032952
:101B40001CD00129814626D034E04FF00077D1E740
:101B50000227CFE7FFF704FCC11B494501D926E066
:101B600081462068C0F381000228F3D126E000BF3F
:101B7000FFF7F6FBC11B494501D918E081462068F3
:101B8000C0F381000328F3D118E000BFFFF7E8FBA2
:101B9000C11B49450BD82068C0F381000128F5D14D
:101BA0000CE022E0FFF7DCFBC11B494502D9032012
:101BB000BDE8F087206810F00C0FF3D1D8F80010C2
:101BC000404601F00101B14211D9012E03D1016853
:101BD00041F004010160016821F00101314301601D
:101BE000006800F00100B04201D00120E0E7287851
:101BF000400705D52068E96820F4E06008432060CC
:101C00002878000706D52068296920F4605040EA4A
:101C1000C100206000F072F82168F02292FAA2F26E
:101C200001F0F001B2FA82F2D140074A515CC8409B
:101C3000064908600020FFF763FE0020B8E70000B7
:101C4000003C024008380240CD5D0008280000201A
:101C50000F2202600C4A136803F003034360136809
:101C600003F0F0038360136803F4E063C360126859
:101C70004FF4E06303EAD20202610448006800F016
:101C8000010008607047000008380240003C024034
:101C900001480068704700002800002008480949F2
:101CA000006809684FF4E06292FAA2F201F4E06180
:101CB000B2FA82F2D140044A515CC8407047000039
:101CC0002800002008380240DD5D00080848094966
:101CD000006809684FF4605292FAA2F201F4605170
:101CE000B2FA82F2D140044A515CC8407047000009
:101CF0002800002008380240DD5D00081E4A1168F7
:101D000001F00C00042813D0082813D00C2813D09D
:101D1000101F006800F460414FF4604090FAA0F09A
:101D2000B0FA80F0C1404FF40040491C8840704731
:101D300012487047124870474FF4701393FAA3F398
:101D400001F47010B3FA83F3D8400E4B01F4400154
:101D50001268185C4FF4400393FAA3F3B3FA83F3C9
:101D6000D940491CD20301D5054A00E0034A50433B
:101D7000B0FBF1F070470000083802400024F40086
:101D800000127A00C45D00082DE9F84F074600787C
:101D9000FB4EFC4DC0074FF0010428D0F848083036
:101DA00001684FF40038C1F38101022907D00168AE
:101DB000C1F3810103291BD10068C00318D598FA2B
:101DC000A8F0B0FA80F040F02000400901D030685F
:101DD00000E0286898FAA8F1B1FA81F101F01F013A
:101DE00004FA01F108425CD0786800287BD058E002
:101DF000786801280AD008B1052811D0306820F48D
:101E000080303060306820F4802002E0306840F498
:101E100080303060786828B3FFF7A2FA81460BE083
:101E2000306840F480203060F0E700BFFFF798FA98
:101E3000A0EB0900642872D898FAA8F0B0FA80F0F4
:101E400040F02000400901D0306800E0286898FA8E
:101E5000A8F1B1FA81F101F01F0104FA01F1084281
:101E6000E4D01EE0FFF77CFA814605E0FFF778FA40
:101E7000A0EB09006428DED898FAA8F0B0FA80F048
:101E800040F02000400901D0306800E0286898FA4E
:101E9000A8F1B1FA81F101F01F0104FA01F1084241
:101EA000E4D13878DFF8E08280074FF0000B4FF084
:101EB00002095FD5B24808300168C1F381010129E8
:101EC00007D00168C1F3810103291CD10068C00358
:101ED00019D499FAA9F0B0FA80F040F02000400936
:101EE00002D0306801E086E0286899FAA9F1B1FAD9
:101EF00081F101F01F0104FA01F108422BD0F868CA
:101F0000012878D127E0F868A8B394FAA4F0B0FAD1
:101F100080F048F82040FFF723FA824606E066E1A9
:101F2000FFF71EFAA0EB0A00022884D899FAA9F15B
:101F3000B1FA81F141F02001490901D0316800E096
:101F4000296899FAA9F0B0FA80F000F01F0004FAAD
:101F500000F00142E4D08A48001D01684FF4F853B4
:101F600093FAA3F33A69B3FA83F321F4F8519A4050
:101F70001143016025E0FFE794FAA4F1B1FA81F181
:101F800048F821B0FFF7ECF9824605E0FFF7E8F9E1
:101F9000A0EB0A000228C8D899FAA9F0B0FA80F09C
:101FA00040F02000400901D0306800E0286899FA2C
:101FB000A9F1B1FA81F101F01F0104FA01F108421F
:101FC000E4D138784FF4007AC0067CD56C480830EC
:101FD000006810F00C0F0FD0B9694FF48070002921
:101FE00072D090FAA0F0B0FA80F048F82040FFF7E5
:101FF000B7F900907EE087E09AFAAAF0B0FA80F094
:1020000040F02000400901D0306800E028689AFACA
:10201000AAF1B1FA81F101F01F0104FA01F10842BD
:1020200002D0B86900286FD05548396A001D006891
:1020300000F4604081421AD9084601F03BFA0028BA
:1020400062D14F48001D01683A6A21F46041114392
:10205000016001684FF07F4393FAA3F3FA69B3FA82
:1020600083F321F07F419A401143016018E0444816
:10207000001D026822F460420A43026001684FF0CA
:102080007F4393FAA3F3FA69B3FA83F321F07F4114
:102090009A4011430160386A01F00CFA0028CFD150
:1020A0004FF4604191FAA1F1386AB1FA81F1C84068
:1020B0004FF40041401C8140314808300068F02254
:1020C00000F0F00001E070E040E092FAA2F2B2FA13
:1020D00082F2D0402D4A105CC1402D4801600020A2
:1020E000FFF70EFC61E000BFFFF73AF90099401AD4
:1020F00002287CD89AFAAAF0B0FA80F040F02000CA
:10210000400902D0306801E0BCE128689AFAAAF1DF
:10211000B1FA81F101F01F0104FA01F10842E3D0A4
:102120001748001D01683A6A21F4604111430160BB
:1021300001684FF07F4393FAA3F3FA69B3FA83F38C
:1021400021F07F419A40114301602EE090FAA0F007
:10215000B0FA80F048F820B0FFF702F9009005E0EF
:10216000FFF7FEF80099401A0228C2D89AFAAAF09E
:10217000B0FA80F040F0200040090BD030680AE04F
:10218000003802403438024000004742CD5D00086C
:102190002800002028689AFAAAF1B1FA81F101F02A
:1021A0001F0104FA01F10842DAD13878000753D54B
:1021B000786948B394FAA4F0B0FA80F008EB800094
:1021C000C0F88046FFF7CCF8009005E0FFF7C8F8AC
:1021D0000099401A02288CD899FAA9F0B0FA80F038
:1021E00040F04000B4EB501F02D1306801E08EE0B7
:1021F000286899FAA9F1B1FA81F101F01F0104FAF6
:1022000001F21042E2D027E094FAA4F1B1FA81F190
:1022100008EB8101C1F880B6FFF7A2F8009005E055
:10222000FFF79EF80099401A022870D899FAA9F091
:10223000B0FA80F040F04000B4EB501F01D130689C
:1022400000E0286899FAA9F1B1FA81F101F01F01C3
:1022500004FA01F21042E3D1387840077BD59B485D
:102260004FF000090068C0000AD49848016841F0A6
:102270008051016000684FF0010900F0805000902B
:1022800093480168C90511D4016841F48071016067
:10229000FFF766F8009005E0FFF762F80099401A32
:1022A000642834D88A480068C005F5D5B868012884
:1022B0000AD008B1052811D0286820F48070286061
:1022C000286820F4806002E0286840F4807028606C
:1022D000B86848B3FFF744F800900DE0286840F470
:1022E00080602860F0E700BFFFF73AF80099411AD4
:1022F00041F2883081420AD89AFAAAF0B0FA80F006
:1023000040F04000B4EB501F02D1306801E095E08E
:1023100028689AFAAAF1B1FA81F101F01F0104FAD2
:1023200001F21042E0D022E0FFF71AF8009007E037
:10233000FFF716F80099411A41F2883081427DD8A2
:102340009AFAAAF0B0FA80F040F04000B4EB501FC7
:1023500002D1306801E012E028689AFAAAF1B1FAD5
:1023600081F101F01F0104FA01F21042E0D1B9F14C
:10237000000F04D05548016821F080510160786A4F
:10238000E8B3DFF84891A9F11C09D9F80010C1F3AE
:102390008101032976D002284FF080714FF0007A36
:1023A00058460BD091FAA1F1B1FA81F148F8210019
:1023B000FEF7D6FFB046074656466DE04FF08071F7
:1023C00091FAA1F1B1FA81F18A0042495050FEF729
:1023D000C7FFB3468046564606E000BFFEF7C0FF83
:1023E000A0EB0800022854D896FAA6F0B0FA80F0C4
:1023F00040F02000400903D0DBF8000001E061E07C
:10240000286896FAA6F1B1FA81F101F01F0104FAE9
:1024100001F10842E2D1D7E90A103A6BD9F800304D
:10242000014323F47D031A431143C9F800104FF010
:10243000807090FAA0F0B0FA80F000E029E081000E
:1024400024480C50FEF78CFF074604E0FEF788FF97
:10245000C01B02281DD896FAA6F0B0FA80F040F012
:102460002000400902D0DBF8000000E0286896FA5E
:10247000A6F1B1FA81F101F01F0104FA01F108425D
:10248000E4D01FE020E000BFFEF76AFFC01B022877
:1024900002D90320BDE8F88F96FAA6F0B0FA80F0D2
:1024A00040F02000400902D0D8F8000000E0286881
:1024B00096FAA6F1B1FA81F101F01F0104FA01F1D7
:1024C0000842E1D10020E5E70120E3E7243802409B
:1024D00000700040000047424FF0E02104280869E6
:1024E00003D020F004000861704740F00400FAE7D0
:1024F00010B5401EB0F1807F01D3012010BD4FF018
:10250000E02460610F21601700F0C4FF0020A0618B
:1025100007202061002010BD30B590F83420012A3A
:1025200020D0012280F83420022380F8353003685F
:102530005C6824F070045C6003685C680D682C4380
:102540005C6003689C6824F080049C6003689C685D
:1025500049680C439C6080F83520002180F83410D5
:10256000084630BD022030BD10B5040003D094F8F9
:10257000350010B107E0012010BD002084F83400C0
:10258000204600F00DF8022084F83500211D206857
:1025900001F03CF9012084F83500002010BD000056
:1025A00008B500680B49884212D10B48016841F018
:1025B000020101600068002200F002000090062184
:1025C0001D20FFF729FABDE808401D20FFF718BAC3
:1025D00008BD000000040040243802400168CA68B9
:1025E00042F00102CA600068016841F00101016027
:1025F000002070470168CA6822F00102CA600068C2
:10260000016A41F21112114203D1016821F0010166
:1026100001600020704770B5044690F8340001282E
:1026200017D0012584F83450022084F83500206842
:10263000826822F0770222F47F4282600868502884
:1026400037D00DDC202859D005DC88B3102841D1C3
:1026500051E0022070BD302853D040283AD13FE0ED
:1026600060282ED070280BD0B0F5805F03D0B0F575
:10267000005F2FD110E02068816821F0070115E08C
:10268000CB68D1E90121206801F0FEF82168886853
:1026900040F0770088601DE0CB68D1E90121206817
:1026A00001F0F2F82068816841F48041816011E016
:1026B0001EE0CA684968206801F0F8F850212068D7
:1026C00006E0CA684968206801F001F960212068C5
:1026D00001F0E4F884F83550002084F8340070BD2F
:1026E000CA684968206801F0E1F840212068EFE7F6
:1026F00000212068ECE710212068E9E7202120680C
:10270000E6E730212068E3E7704770B504460068CB
:1027100001694FF00005C943890715D4C168C94351
:10272000890711D4E91E01610120207520688069A4
:102730008007204602D0FFF7E7FF04E000F078F8BA
:10274000204600F076F8257520680169C9434907DD
:1027500017D4C168C943490713D46FF0040101615C
:10276000022020752068806910F4407F204602D046
:10277000FFF7CAFF04E000F05BF8204600F059F8CC
:10278000257520680169C943090716D4C168C94382
:10279000090712D46FF00801016104202075206838
:1027A000C0698007204602D0FFF7AEFF04E000F0CA
:1027B0003FF8204600F03DF8257520680169C943BF
:1027C000C90617D4C168C943C90613D46FF01001F4
:1027D0000161082020752068C06910F4407F204600
:1027E00002D0FFF791FF04E000F022F8204600F04D
:1027F00020F8257520680169C943C90708D1C16857
:10280000C943C90704D1891E0161204600F012F8AE
:1028100020680169C943490609D4C168C94349060A
:1028200005D46FF040010161204600F02BF870BD27
:102830007047704710B504460068B0F1804F01D171
:10284000FFF74AF808492068096888420AD1074812
:10285000006802F0ABF8002804D0BDE8104004A0E6
:1028600001F0EABA10BD0000F00000201C000020BA
:102870000D54696D657233206661696C6564210D64
:102880000A0000007047704790F839007047000058
:1028900038B5044600680168C26811F0010F02F4FF
:1028A000807204D01AB1E16B41F00101E16301686B
:1028B000C1F34002416901F0010122B119B1E26B9B
:1028C00042F00402E2630268C2F3800222B119B14D
:1028D000E26B42F00202E2630268C2F3C00222B17C
:1028E00019B1E16B41F00801E1630168C068C1F30F
:1028F000401100F0200019B110B1204600F0FAFF9D
:1029000020680168C068C1F3C01100F0800019B1EF
:1029100010B1204601F092F921680868CA68C0F336
:10292000801002F04002012570B16AB1CA682046E9
:1029300022F04002CA6094F83910322911D080F890
:10294000395000BF00F03CF9E06B002808D0206847
:1029500001684068009084F839502046FFF793FFE3
:1029600038BD222180F83910ECE770B5040004D09E
:1029700094F83900002510B106E0012070BD84F8FC
:102980003850204600F020F8022084F839002068F2
:10299000C16821F40051C160204600F0FFFF2068AB
:1029A000016921F4904101612068416921F02A0107
:1029B00041612068C16841F40051C160E5630120B4
:1029C00084F83900002070BD00B50068124987B056
:1029D00088421ED11148016841F40031016000684D
:1029E000694600F4003005900C2000900220019010
:1029F0000120029003200390072004900848FEF76E
:102A0000CDFB002207212620FFF706F82620FEF73F
:102A1000F7FF07B000BD000000440040243802402A
:102A2000000002402DE9F047044690F8390099462D
:102A30000D46012801D0122858D12DB322B394F8A5
:102A40003800012852D0012684F838600027E76357
:102A500094F8390012281AD05FF0220084F8390067
:102A6000A285E2854FF48058E08D4B46401EE085FC
:102A7000A0684FF0000240454FF02001204616D1DB
:102A800001F00FF9B0B904E00120BDE8F087322071
:102A9000E4E7206900282068406803D0C1B225F827
:102AA000011B12E0C0F3080125F8021B0DE001F044
:102AB000F8F808B10320E8E720690028206840689A
:102AC00001D000F07F0005F8010BE08D0028CBD18C
:102AD00094F83900322805D084F8396084F83870C9
:102AE0000020D2E7122084F83900F7E70220CCE773
:102AF000704700002DE9F047044690F839009946E8
:102B00000D46012801D0222858D12DB322B394F8C4
:102B10003800012852D0012684F838600027E76386
:102B200094F8390022281AD05FF0120084F8390096
:102B3000A284E2844FF48058E08C4B46401EE0842F
:102B4000A0684FF0000240454FF08001204613D1AD
:102B500001F0A7F808BB04E00120BDE8F0873220AF
:102B6000E4E728882168C0F308004860206908B1BC
:102B70006D1C08E0AD1C06E001F093F868B921680F
:102B800015F8010B4860E08C0028D5D14B46002297
:102B90004021204601F085F808B10320DDE794F8D4
:102BA0003900322806D084F8396000BF84F83870C4
:102BB0000020D2E7222084F83900F7E70220CCE792
:102BC0007047FEE701684A69D24352050CD46FF49E
:102BD00080624A6104210164002140F8301F2022F4
:102BE00042730173012070470020704710B505A0A3
:102BF00001F022F90E48FEF7B9FBBDE810400C4881
:102C0000FEF744BE0D0A4C534D333033414752203A
:102C100049324331206572726F722C207265696E81
:102C2000697420493243312E2E2E0D0A0000000017
:102C30009C0000201FB50022094C8DF80C200123B8
:102C4000246803AA8DE81C000A4601460548FEF7E1
:102C500049FC08B1FFF7CAFF9DF80C0004B010BD95
:102C6000900000209C00002017B5094C83B0012380
:102C7000246805AA8DE81C000A4601460548FEF7AF
:102C80004DFD002801D0FFF7B1FF06B010BD0000D8
:102C9000900000209C00002010B505A001F0CCF8A9
:102CA0000D48FEF763FBBDE810400B48FEF7EEBD94
:102CB0000D0A4C534D3644534C2049324331206564
:102CC00072726F722C207265696E6974204932438A
:102CD000312E2E2E0D0A00009C0000201FB5002171
:102CE0000A4B8DF80C1001221B6803A98DE80E0019
:102CF00013460246D7210648FEF7F4FB08B1FFF75A
:102D0000CBFF9DF80C0004B010BD00008C0000202B
:102D10009C00002003B5094B83B001221B6804A965
:102D20008DE80E0013460246D6210548FEF7F6FC54
:102D3000002801D0FFF7B0FF05B000BD8C000020D7
:102D40009C0000202DE9F84F0446006889460B9D41
:102D500001689846174641F4806101602068016867
:102D600041F48071016000954FF0011A0022514634
:102D700020460A9B00F0D5F8F0BB216809F0FE0060
:102D800008610AF1010B2B46594620460A9A00F0C9
:102D9000F9F818B1206C042812D03AE02068416993
:102DA000806900902A4620460A9900F060F950B1E7
:102DB000206C04282DD12068016841F40071016065
:102DC0000120BDE8F88FFEB2B8F1010F09D02168EB
:102DD000380A08612A4620460A9900F048F9002876
:102DE000E6D1206806612A4620460A9900F03FF99C
:102DF0000028DDD1206800E00BE0016841F480711B
:102E0000016000950022514620460A9B00F089F897
:102E100008B10320D5E7216809F0FF0040F0010068
:102E200008612B46594620460A9A00F0ABF8002864
:102E3000B0D1C6E72DE9F843044600680D46DDE948
:102E4000089701689846164641F4807101604B4628
:102E500000224FF001112046009700F062F8E8B917
:102E6000216805F0FE0008613B464A4618492046A5
:102E700000F088F828B1206C04280FD10120BDE8AB
:102E8000F88320684169806900903A4649462046A7
:102E900000F0EDF820B1206C042813D00320EEE7F9
:102EA000F5B2B8F1010F09D02168300A08613A463D
:102EB0004946204600F0DBF80028ECD12068056187
:102EC0000020DCE72068016841F400710160D5E76B
:102ED0000200010070B516460D4604461AE0204671
:102EE000FFF770FE08B1012070BD681C12D025B13B
:102EF000FEF736FA801BA8420CD954F8400F40F078
:102F0000200044F810090020206020216173207304
:102F1000032070BD20684069C0434007DFD4002013
:102F200070BD2DE9F0471E4690460D460446C1F39C
:102F30000747DDF8209012E0701C10D02EB1FEF78C
:102F40000FFAA0EB0900B04209D9002044F8300F75
:102F500020216173A07320730320BDE8F0872068EF
:102F6000012F0AD0806925EA00000004000C06D079
:102F700000214145E0D00020EFE74069F3E701215F
:102F8000F7E700002DE9F0479A4691460D460446C2
:102F900000264FF02008C1F307472AE02068406967
:102FA000C043400512D42068016841F400710160FB
:102FB00021686FF48060486104202064266384F8EF
:102FC0003D8084F83C600120BDE8F087B9F1FF3F07
:102FD0000FD0B9F1000F05D0FEF7C2F9A0EB0A013E
:102FE000494506D944F8306F84F80D8026730320D4
:102FF000EAE72068012F07D0D0F8180025EA000082
:103000000004000CE0D0C9E74069F7E72DE9F04182
:10301000002590460E460446202721E04069C04323
:10302000C0060CD421686FF0100048612564256348
:1030300084F83D7084F83C500120BDE8F0812EB149
:10304000FEF78EF9A0EB0800B04209D954F8400F02
:1030500040F0200044F80409677025700320ECE775
:1030600020684169C9434906D8D40020E5E770B516
:1030700016460D4604461AE02046FFF7A3FD08B1A8
:10308000012070BD681C12D025B1FEF769F9801BC4
:10309000A8420CD954F8400F40F0200044F8100921
:1030A00000202060202161732073032070BD206800
:1030B0004069C0430006DFD4002070BD70B50446EF
:1030C00028213320FFF7B6FD054629213320FFF7DD
:1030D000B1FD45EA002020802A213320FFF7AAFD18
:1030E00005462B213320FFF7A5FD45EA002060802F
:1030F0002C213320FFF79EFD05462D213320FFF7BD
:1031000099FD45EA0020A08068213D20FFF792FD4F
:10311000054669213D20FFF78DFD45EA0020E0804E
:103120006A213D20FFF786FD05466B213D20FFF714
:1031300081FD45EA002020816C213D20FFF77AFDCA
:1031400005466D213D20FFF775FD45EA00206081B1
:1031500070BD10B5272220213220FFF785FD902277
:1031600023213220FFF780FD202260213C20FFF741
:103170007BFD00226021BDE810403C20FFF774BDBC
:1031800070B504462820FFF7A9FD05462920FFF762
:10319000A5FD45EA002020802A20FFF79FFD054677
:1031A0002B20FFF79BFD45EA002060802C20FFF7D5
:1031B00095FD05462D20FFF791FD45EA0020A080F2
:1031C0002220FFF78BFD05462320FFF787FD45EA08
:1031D0000020E0802420FFF781FD05462520FFF731
:1031E0007DFD45EA002020812620FFF777FD05467A
:1031F0002720FFF773FD45EA0020608170BD10B500
:1032000001211220FFF786FD40211220FFF782FDE9
:1032100010211520FFF77EFD18211020FFF77AFD01
:1032200080211620FFF776FD3621BDE810401120E1
:10323000FFF770BD10B592B000201190012111A8C8
:1032400001F0A0FB1B4C14221B49A0616846FCF74F
:10325000D1FF0021684601F00FFC1749A06014223D
:10326000143105A8FCF7C6FF002105A801F004FCF5
:103270001149E060142228310AA8FCF7BBFF0021A5
:103280000AA801F0F9FB0C4920610839D1E90001D5
:10329000CDE90F0100210FA801F0F6FA6061642169
:1032A000A06901F0ABFB002802D004A000F0C4FD2F
:1032B00012B010BD04000020885D00080D0A54699A
:1032C0006D657253656D206661696C656420746F0D
:1032D00020676574210D0A0030B5234887B0016866
:1032E00041F004010160016801F0040105910168E9
:1032F00041F020010160016801F0200105910168A1
:1033000041F001010160016801F0010105910168CE
:1033100041F0020101600068144D00F002000590C8
:10332000002220212846FEF715F84FF400500090A7
:103330000F480124CDE9010469460E48FDF72EFF30
:10334000202000900021CDE90141039169462846E3
:10335000FDF724FF002205212820FEF75DFB282031
:10336000FEF74EFB07B030BD1C38024000000240A3
:1033700000002110000802400E4810B50C49016001
:103380000D49416000214FF480428160C0E9031281
:1033900041618161C1610162FEF702F8002805D038
:1033A000BDE810404C2105A000F045BD10BD000057
:1033B000005400409C000020A08601002E2E2F53B8
:1033C00072632F6932632E630000000010B5184845
:1033D00086B01649016040F67F410024C0E901141F
:1033E00041F28731C0E90314FFF7BEF818B1482154
:1033F00010A000F020FD4FF48050009069460C486A
:10340000FFF709F918B14E210AA000F014FD049449
:1034100004A907480594FFF77FF8002803D0552139
:1034200004A000F008FD06B010BD0000000400403C
:10343000F00000202E2E2F5372632F74696D2E63BF
:10344000000000000D4810B50B4901604FF4E13158
:103450004160002181600C22C160C0E904128161D9
:10346000C161FFF782FA002805D0BDE810404C2169
:1034700003A000F0E0BC10BD004400402801002083
:103480002E2E2F5372632F75736172742E6300009A
:10349000FEE770470907090E002806DA00F00F0062
:1034A00000F1E02080F8141D704700F1E02080F862
:1034B0000014704738B51C49002309681B4A11F0F5
:1034C000F00F23D118491C310C68E500184C03D5C6
:1034D000216801F4C0540EE00D6845F080550D6080
:1034E0000D6805F08055009524680D6804F4C054FB
:1034F00025F080550D60B4F5C05F07D1B0F5404FA1
:1035000004D11068012340F004001060106820F01E
:10351000010018431060106800F00100984201D0CB
:10352000012038BD002038BD08380240003C024070
:10353000007000402DE9F0438946284987B04FF0DC
:103540000008461847466C4644E0254900208E4254
:1035500007D804CE44F82020401CC0B20628F6D379
:1035600002E020A000F068FC009880B1002108F182
:103570000108084634F91020401C5140C0B20A2806
:10358000F8D3BDF91600884212D020A01EE04046B4
:10359000FCF790FE4FF0FF31FCF780FEFCF78FFE4A
:1035A00002460B461FA000F047FC07B0BDE8F083C1
:1035B0002AA000F041FC00252EA034F9151000F0DF
:1035C0003BFC6D1CEDB20C2DF6D315A000F034FCC5
:1035D0007F1CFFB24F45B8D3E7E700000030020878
:1035E000007008080D0A52657175657374696E671D
:1035F00020646174612066726F6D20666C6173680F
:10360000206572726F72210D0A0000000D0A44617C
:10361000746120506172697479204572726F7221F1
:103620000D0A00000D0A416C6C20746865207361FE
:103630006D706C657320726561642C20696E636CBB
:103640007564696E6720252E3166207365636F6E21
:103650006473272064617461210D0A003920617848
:10366000697320646174612072656164696E673A90
:10367000200000002537642C200000002DE9F043D5
:1036800087B0164688460746FDF77AFC1C48454633
:103690003C18C4F38500C0F14001230A0020012238
:1036A0008FB1B1EB860F0AD2190202AF01F580711A
:1036B00087E8070006A9069002A8FDF7F9FB002796
:1036C000DFF8409011E0CDE90204CDE9042005A91E
:1036D000F2E74C4510D858F82720214602202A60EE
:1036E000FDF730FC241D2D1D7F1CB742F1D307B020
:1036F000BDE8F043FDF71CBC03A000F09DFBF6E71E
:1037000000300208FC6F08080D0A466C61736820DF
:1037100057726974652041646472206572726F72B9
:10372000210D0A0001F09EB91D4800B5016893B053
:1037300021F4C05141F40061016001200090052096
:10374000019002200990C0030A904FF440200B9092
:103750004FF480000C906846FEF716FB00B1FEE7C0
:103760000F200D9003200E9000200F9010901190CC
:1037700001210DA8FEF782F900B1FEE7FEF788FAF5
:103780004FF47A71B0FBF1F0FEF7B2FE0420FEF7C1
:10379000A3FE00220F21501EFEF73EF913B000BD1C
:1037A000007000400F48016841F4807101600D49CC
:1037B00008310A680C4B1A400A6002680B4B1A4029
:1037C0000260026822F480220260086820F47D0012
:1037D00008600020091D086005494FF0006008607E
:1037E00070470000003802400CC0FF88FEFFFEEE6C
:1037F00008ED00E00148FEF788BF00007C010020D2
:103800000148FEF782BF0000F0000020F0B502681A
:103810004FF0804C164B174C174D184E604507D093
:10382000984205D0A04203D0A84201D0B04205D1B1
:1038300022F070074A683A4360450DD098420BD099
:10384000A04209D0A84207D0B04205D00C4B984204
:1038500002D00C4B984203D122F44073CA681A4339
:1038600002608A68C2620968816201214161F0BD1B
:103870000004004000080040000C00400008014027
:10388000000C01400010014010B5846842EA032298
:1038900024F47F440A432243826010BD826822F0F0
:1038A00070020A4342F007018160704710B5036A55
:1038B000046A24F001040462846924F0F00444EAF8
:1038C000021423F00A020A438461026210BD10B59B
:1038D000036A23F0100303628369046A23F47043CC
:1038E00043EA023224F0A00343EA0111826101623B
:1038F00010BD000010B590F83910222903D03229EC
:1039000001D0022010BD8168B1F5805F11D001693E
:10391000002901681FD0496801F07F03816A4A1CB1
:1039200082620B70C18D491E0904090CC18518D033
:1039300030E00269816A002A0268526805D0D2B27A
:103940000A80816A491C8162ECE7C2F308020A809E
:10395000816A891CF7E74A68816A4B1C83620A7096
:10396000E0E70168CA6822F02002CA6090F83910C6
:10397000322911D00168CA6822F48072CA600168D5
:103980004A6922F001024A615FF0010180F83910B2
:10399000FFF7AEF8002010BD1221F7E72DE9F04146
:1039A000044600680169E26821F440511143016155
:1039B0002169A068E26908436169114308432168ED
:1039C000CA6849F20C639A430243CA60206841699D
:1039D000A26921F4407111434161E1696425B1F5A7
:1039E000004F954821684FF032083DD081427AD18E
:1039F000FEF76CF900EBC00101EB00106168890073
:103A0000B0FBF1F6FEF762F900EBC00101EB00102C
:103A100061688900B0FBF1F0B0FBF5F06FF01801C0
:103A2000484306EB800108EB0110B0FBF5F000F015
:103A3000F006FEF74BF900EBC00101EB00106168E6
:103A40008900B0FBF1F0B0FBF5F006EB0016FEF7D5
:103A50003DF900EBC00101EB001061688900B0FB8B
:103A6000F1F7FEF733F9D0E081423DD1FEF72EF9B0
:103A700000EBC00101EB001061684900B0FBF1F000
:103A8000B0FBF5F00601FEF721F900EBC00101EBF8
:103A9000001061684900B0FBF1F7FEF717F900EB81
:103AA000C00101EB001061684900B0FBF1F0B0FB10
:103AB000F5F06FF01801484307EB800108EBC100F7
:103AC000B0FBF5F000F0F80006EB4006FEF7FEF85C
:103AD00000EBC00101EB001061684900B0FBF1F799
:103AE000FEF7F4F83CE055E0FEF7D8F800EBC00133
:103AF00001EB001061684900B0FBF1F0B0FBF5F09C
:103B00000601FEF7CBF800EBC00101EB0010616885
:103B10004900B0FBF1F7FEF7C1F800EBC00101EB83
:103B2000001061684900B0FBF1F0B0FBF5F06FF0F8
:103B30001801484307EB800108EBC100B0FBF5F02A
:103B400000F0F80006EB4006FEF7A8F800EBC00115
:103B500001EB001061684900B0FBF1F7FEF79EF839
:103B600000EBC00101EB001061684900B0FBF1F00F
:103B7000B0FBF5F06FF01801484307EB800108EB4C
:103B8000C100B0FBF5F000F0070021683044886008
:103B9000BDE8F081FEF782F800EBC00101EB0010F8
:103BA00061688900B0FBF1F6FEF778F800EBC00120
:103BB00001EB001061688900B0FBF1F0B0FBF5F09B
:103BC0006FF01801484306EB800108EB0110B0FBD1
:103BD000F5F000F0F006FEF761F800EBC00101EB34
:103BE000001061688900B0FBF1F0B0FBF5F006EB66
:103BF0000016FEF753F800EBC00101EB00106168FE
:103C00008900B0FBF1F7FEF749F800EBC00101EBCA
:103C1000001061688900B0FBF1F0B0FBF5F06FF0C7
:103C20001801484307EB800108EB0110B0FBF5F0E9
:103C300000F00F00A9E700000038014090F83910AB
:103C4000122903D0322901D0022070478168B1F5D2
:103C5000805F016A0BD04A1C0262026809785160D9
:103C6000C18C491E0904090CC1840ED017E00988D3
:103C70000268C1F30801516001690029016A02D09C
:103C8000491C0162ECE7891CFBE70168CA6822F065
:103C90008002CA600068C16841F04001C160002034
:103CA00070472DE9F0471D4690460E460446FDF745
:103CB00057FB07465FEA08004FF000094FF0010884
:103CC00008D030E0681C05D095B1FDF749FBC01B5A
:103CD000A8420DD82068006836EA0000F2D127E03B
:103CE000681C20D025B1FDF73BFBC01BA8421AD9A8
:103CF0002068C16821F08001C1602068C16821F09E
:103D00002001C1602068C16821F48071C160206811
:103D1000416921F00101416184F8398084F83890CB
:103D20000320BDE8F0872068006836EA0000D7D09D
:103D30000020F6E7F8B500268DF800602548FEF76C
:103D4000A3FD2228FAD06423012269462148FEF708
:103D500069FE012802D120A000F06EF8254C264A09
:103D6000651E637823709DF80000607029785054B8
:103D7000491CC9B229700D2B01D10A2809D0142978
:103D800019D31EA000F058F814211B48FCF74BFA79
:103D90000EE0881E01E01654401CC0B21428FAD36D
:103DA000022905D9224800221349006800F0BCFD11
:103DB0002E70267066700748FEF76AFD0548016898
:103DC0004A6942F001024A610068C16841F020017D
:103DD000C160F8BD280100200D0A5541525432201F
:103DE00072656365697665206572726F72210D0A6E
:103DF0000000000021000020680100200D0A52652B
:103E000064756365206C656E677468206F662063F7
:103E10006F6D6D616E642C20616E6420656E642030
:103E20007769746820454E544552210D0A00000000
:103E300018000020FEE7FEE70FB4054B10B503A9FC
:103E4000044A029800F0CEF810BC5DF814FB0000A4
:103E50001547000894000020004870479800002093
:103E600002E008C8121F08C1002AFAD17047704743
:103E7000002001E001C1121F002AFBD170470000A1
:103E80002DE9FF5FDDE90220010DDDF838B00243C6
:103E900018D044F61050A1F2FF3141430D140F9891
:103EA000012820D0A5EB0B00401C5FEA000A4FF070
:103EB0000004474EDFF81C91A046504616D5CAF1C3
:103EC000000728E00F98012443A2012808D0002110
:103ED00000980F9BC0E90021C0E90243BDE8FF9FA5
:103EE0006FEA0B01F4E7CBF10000DEE7074612E0D2
:103EF000F80707D02246334640464946FCF74FFBB9
:103F0000804689462246334610461946FCF747FB51
:103F100004460E467F10002FEAD1DDE90201BAF116
:103F2000000F42464B4602DAFCF739FB01E0FCF792
:103F3000A8FB04460E460022284BFCF729FC03D8B8
:103F40004FF0FF30014607E00022254B2046314666
:103F5000FCF77EFAFCF704FC102409E0002C0ADBD5
:103F60000A220023FCF7D4F9019B30321A55641E53
:103F700050EA0102F2D1641C019AC4F11103144405
:103F80000F9A012A03D0012208430DD10AE0084309
:103F900004D000204FF0110B0F9080E7A3EB0B052E
:103FA0006D1E0DE05B4504DD4FF0000205F10105DB
:103FB00004E003DA4FF00002A5F10105002AECD07D
:103FC00000980F99C0E90231C0E9004586E700007A
:103FD000000024400000F03F300000000000F043EB
:103FE0000000E03F2DE9FF4F95B09B46894606460D
:103FF00000250FE2252877D100242746F84A012121
:10400000059400E0044316F8013F203B01FA03F059
:104010001042F7D130782A2811D06FF02F03307872
:10402000A0F13002092A16D8059A44F0020402EBE6
:10403000820203EB42021044761C0590EFE759F828
:10404000042B0592002A03DA504244F400540590F0
:1040500044F00204761C30782E2816D116F8010F91
:1040600044F004042A280DD06FF02F023078A0F11C
:104070003003092B09D807EB870302EB4303C7186A
:10408000761CF3E759F8047B761C30786C280FD047
:1040900006DC4C2817D068280DD06A2814D104E01B
:1040A000742810D07A280FD10DE044F400140AE0EF
:1040B00044F4801401E044F440147278824202D146
:1040C00004F58014761C761C307866280BD013DC3F
:1040D000582877D009DC002875D04528F6D0462826
:1040E000F4D047281AD19DE118E0632835D0642820
:1040F00079D0652812D195E1702873D008DC672843
:10410000F1D069286FD06E280DD06F2806D1B5E0A8
:1041100073282CD0752875D0782874D05A461799F2
:1041200090476D1C75E1C4F30250022809D00328A2
:104130000DD0D9F8001004280DD00D6009F1040944
:1041400067E1D9F80010EA17C1E90052F6E7D9F89B
:1041500000100D80F2E70D70F0E719F8041B8DF8E0
:10416000001000208DF80100EA46012003E059F814
:1041700004AB4FF0FF3061074FF0000102D40DE0B7
:1041800008F101018846B9420FDA8045F8DB1AF8D8
:1041900008100029F4D108E008F1010188468142A5
:1041A000FADB1AF808100029F6D105985B46A0EB57
:1041B000080721463846179A00F094FA284400EB85
:1041C000080507E04DE029E10DE01AF8010B5A4619
:1041D00017999047B8F10108F7D25B462146384657
:1041E000179A13E142E00A220092C4F302524FF000
:1041F000000A022A08D059F804CB032A4FEAEC71CE
:104200000AD00DE029E02AE009F1070121F00702B8
:10421000F2E802C1914609E00FFA8CFC4FEAEC711A
:10422000042A03D14FFA8CFC4FEAEC71002907DA1B
:104230000A460021DCF1000C61EB02012D2202E0B4
:10424000220504D52B228DF80420012203E0E20789
:1042500001D02022F7E7904659E00A2102E010221F
:104260000DE010214FF0000A00910BE010224FF0FA
:10427000000A44F004040827009203E008224FF0EB
:10428000000A0092C4F30252022A05D059F804CB66
:104290000021032A08D009E009F1070121F00702F3
:1042A000F2E802C1914605E01FFA8CFC042A01D114
:1042B0000CF0FF0C4FF00008220728D5702806D01C
:1042C000009B83F0100353EA0A0305D00EE040225E
:1042D0008DF80420012208E05CEA010206D03022B9
:1042E0008DF804208DF8050002229046009B83F093
:1042F000080353EA0A030AD15CEA010201D162070A
:1043000005D530228DF804204FF001087F1E582873
:1043100004D034A003900EA802900DE036A0F9E777
:1043200053466046009AFBF7F3FF84460398825C8D
:104330000298401E029002705CEA0100F0D10298DF
:1043400006A9081A00F1200A600702D524F4803477
:1043500000E00127574502DDA7EB0A0000E000203E
:1043600000EB0A01009005984144401A0590E003D3
:1043700006D45B462146179A059800F0B3F9054428
:10438000002706E001A85A46C05D179990476D1CAA
:104390007F1C4745F6DBE0030CD55B462146179AA8
:1043A000059800F09FF9054404E030205A4617991B
:1043B00090476D1C0099481E00900029F5DC08E02C
:1043C000029802995A460078491C02911799904721
:1043D0006D1CBAF10001AAF1010AF1DC65E10000EF
:1043E00009280100303132333435363738396162CB
:1043F000636465660000000030313233343536378F
:1044000038394142434445460000000000F058F965
:104410000544761C307800287FF4ECAD19B02846AE
:10442000BDE8F08F620700D4062709F1070222F0E9
:10443000070CFCE80223E14603F000485FEA080CA1
:1044400002D00FF2702C0DE05FEA045C02D50FF28F
:10445000682C07E05FEAC47C02D00FF2602C01E018
:10446000AFF2700C4FF0FF3823F00043CDF850C08E
:1044700065280CD006DC452809D046281DD04728E1
:104480003DD13DE0662818D067287ED138E0002174
:10449000112F01DB112000E0781CCDE9000106A9F5
:1044A0000EA8FFF7EDFCDDE90F010E9A0391002144
:1044B000009207F1010A04914DE04FF0004000978F
:1044C000CDE9011006A90EA8FFF7DAFCDDE90F021D
:1044D00003920E9B11990022DDF80CA00093049228
:1044E00011B9791C00EB010AB7EB0A0004D4C0F142
:1044F000FF3007F1010A0490AAEB0700019044E0A5
:10450000012F00DA01270021112F01DD112000E029
:104510003846CDE9000106A90EA8FFF7B1FCDDE998
:104520000F010E9A0391002104910092BA462107CF
:104530000CD40399514500DA8A46BAF1010F05DD22
:10454000009AAAF10101515C302908D0B84202DA80
:1045500010F1040F06DA0121CDE9011015E0AAF1EE
:104560000101E9E7002805DC049901440491AAEB64
:10457000000102E0411C514500DD8A460499401AC1
:10458000401C01904FF000400290200704D4019895
:10459000504501DBCDF8048000208DF84F000298D3
:1045A0000DF14F07B0F1004F25D02B200E9002984F
:1045B0004FF0020800280CDA404202902D200E90A5
:1045C00007E00A210298FBF78DFE3031029007F8D0
:1045D000011DB8F10001A8F10108F2DC02980028E1
:1045E000EFD1791E0E980870307800F0200040F06E
:1045F000450007F8020D12A8C01B00F10708149827
:10460000007800B1012000EB0A01019801EBE07194
:1046100005984144401A401E0590E00306D45B46CD
:104620002146179A059800F05DF805441498007823
:1046300018B15A46179990476D1CE00324D55B4684
:104640002146179A059800F04DF805441CE004989F
:10465000002807DBDDE90301884203DD0098405CA8
:10466000179901E0179930205A469047049805F1B0
:104670000105401C04900198401E019004D12E2099
:104680005A46179990476D1CBAF10001AAF1010A28
:10469000DDDC05E017F8010B5A46179990476D1CB1
:1046A000B8F10001A8F10108F4DC5B462146179A35
:1046B0000598ABE62D0000002B0000002000000054
:1046C0002DE9F041044600251E461746880404D40F
:1046D00005E039462020B0476D1C641EF9D52846F8
:1046E000BDE8F0812DE9F041044600251E469046C4
:1046F000C80301D5302700E02027880404D505E051
:1047000041463846B0476D1C641EF9D52846BDE8C1
:10471000F081000013B54FF6FF730122694602488D
:10472000FEF7E8F900981CBD28010020EFF3058092
:10473000002800D001207047FDF7D6F8FEF7F4FFFF
:10474000FEF7CAFDFEF77EFEFEF740FEFEF714FE02
:1047500018480068C16841F02001C160FEF74FFDB4
:10476000FEF7F7FC1448FDF745FF0F20FEF7B6FAF9
:104770006A2802D011A0FFF75FFB0F213320FEF75C
:1047800059FA332802D014A0FFF756FB4F213D20E1
:10479000FEF750FA402802D017A0FFF74DFB1EA0ED
:1047A000FFF74AFB24A0FFF747FBFEF743FD00F0AD
:1047B00066F8FEE728010020F00000200D0A4C53A7
:1047C0004D3644534C20696E6974206661696C658E
:1047D00064210D0A000000000D0A4C534D333033A4
:1047E0004147522041434320696E697420666169E4
:1047F0006C6564210D0A00000D0A4C534D333033B3
:10480000414752204D414720696E697420666169B5
:104810006C6564210D0A00000D0A42535020696E38
:104820006974696174696F6E20737563636573730E
:1048300066756C210D0A00000D0A507265737320B5
:1048400055534552204B455920746F207374617243
:104850007420646174612073616D706C696E67218E
:104860000D0A000001460020842900D0C81C7047B2
:1048700010B500B9012000F0ADFC002010BD10B54E
:1048800000F040FD002010BD03C8002200F0F4BD80
:104890002DE9FF410D004FF00006CDE90165074607
:1048A0001ED000240396501C1FD002B11446FFF7FF
:1048B0003DFF69464FF01008E8B103AA2846091DDC
:1048C00001F054F8012813D000960398F0B115496F
:1048D0004FF080500860BFF34F8FBFF36F8F15E02C
:1048E000802031462A46009012E04FF0FF34DEE788
:1048F000CDF80080E9E7002322462846091D00F094
:10490000DFFD012808D054B1402000909DE8070049
:1049100087E80700BDE8FF81CDF80080F6E70020BA
:10492000F3E7000004ED00E037B5054682B0002053
:104930000090140000D10124FFF7F8FE4FF00003AF
:1049400088B16A4603A9284600F064FF012811D106
:10495000009890B10A494FF080500860BFF34F8F24
:10496000BFF36F8F09E0224603A9284600F0A2FE9C
:10497000012802D0FF2005B030BD0020FBE7000079
:1049800004ED00E010B5012901D0002010BD032284
:104990000021012000F070FD040004D000231A461D
:1049A000194600F087FE204610BD000038B50024EF
:1049B00005460094FFF7BAFE90B16946284600F01C
:1049C00087FF012801D0FF2038BD009888B10A492F
:1049D0004FF080500860BFF34F8FBFF36F8F08E038
:1049E00000231A461946284600F064FE012800D02C
:1049F000FF24204638BD000004ED00E038B5050076
:104A00004FF0000000900FD00024481C0ED001B1E0
:104A10000C46FFF78BFEB8B16A460021284600F02D
:104A2000A5FF012818D104E0802038BD4FF0FF34E5
:104A3000EFE7009890B10A494FF080500860BFF34B
:104A40004F8FBFF36F8F09E0002322461946284697
:104A500000F036FD012801D0FF2038BD002038BD10
:104A600004ED00E010B501F031F8012803D0BDE8F5
:104A7000104000F0EBBC10BD3EB504460D46B0F949
:104A80000800FFF7EFFE02A9CDE90001208A2B46BE
:104A900082B2D4E9001000F0EDFF012801D000201F
:104AA0003EBD02983EBD00002DE9F041184C0F4676
:104AB0000546E6682068001D00F0ACFA38B92068A9
:104AC00090F82C1001208840216981432161681CE5
:104AD00007D137B12168BDE8F0410E48091D00F04B
:104AE000D1BA20683544B5424560216805D2A06B33
:104AF000BDE8F041091D00F0ADBA606B091D00F082
:104B0000A9FAA06A854200D2A562BDE8F081000042
:104B100050000020A80E00202DE9F041054600F0CD
:104B2000BDFA2E4CA068401CA06020682C4F10B12C
:104B3000606940B32DE02560A068012829D10026D6
:104B400006EB860007EB800000F076FA761C072E55
:104B5000F6D323488C3000F06FFA2148A03000F0E3
:104B60006BFA1F48B43000F067FA1D48C83000F0F7
:104B700063FA1B48DC3000F05FFA19488C30606340
:104B80001430A06305E02068E96AC06A884200D852
:104B90002560606A401C6062E96A012022698840E1
:104BA0001043206101EB810007EB8000291D00F01C
:104BB00069FA00F093FA606900280CD02068E96A6D
:104BC000C06A884207D207494FF080500860BFF39F
:104BD0004F8FBFF36F8FBDE8F081000050000020C1
:104BE000CC0D002004ED00E070B5114E114C17E023
:104BF00000F0BCFB3068B8B101F060F800F04EFA8C
:104C0000F068C568281D00F005FAA068401EA06085
:104C10006068401E606000F061FA284600F055F8B8
:104C200060680028E4D170BD01F048F8F8E70000A2
:104C3000940E00205000002030B4026C0B46002A75
:104C40000BD0C1681144C1604468A14201D301681E
:104C5000C16030BC1846FBF7CDBA30BC70472DE9B7
:104C6000F041856B174604460026026C82B1C7B13D
:104C7000E068FBF7BFFAE168206C091AE16022687E
:104C8000914202D26168081AE060022F16D017E044
:104C90002068A8B9606800F08BFF064600206060BD
:104CA0000EE0A068FBF7A6FA216CA0680844A0609B
:104CB0006168884204D32068A06001E005B16D1EE0
:104CC0006D1CA5633046BDE8F08110B50446006B4D
:104CD00000F018FA2046BDE8104000F013BA0000BA
:104CE00010484FF44061420706D0C01D0D4920F026
:104CF0000700411AC1F540610B4A00230144C2E993
:104D000000030839103A21F0070111604B600B6075
:104D10000B1AC0E9001393604FF000405360D0605D
:104D200070470000CC0100203C000020074C4FF0F1
:104D30008056074DFFF758FF20680128FAD92E60EA
:104D4000BFF34F8FBFF36F8FF4E70000CC0D00204F
:104D500004ED00E02DE9F0479A46DDE9098481463B
:104D60006FF00303206B03EB82021044089D20F0D8
:104D70000706700707D0502080F31188BFF34F8FCC
:104D8000BFF36F8FFEE723180A5C83F834200A5CB8
:104D900012B1401C1028F6D3002784F84370072D69
:104DA00000D30625E562C4E91157201D00F04FF934
:104DB00004F1180000F04BF92461C5F107006462AA
:104DC000A061E76484F8507052464946304600F0CE
:104DD0000FF92060B8F1000F01D0C8F80040BDE81D
:104DE000F087000030B5114900E011460A688242A0
:104DF000FBD34B685C18844203D140681844486078
:104E0000084643681C18944209D1084C103C246899
:104E1000A24209D052681A4442600A6812680260CD
:104E2000814200D0086030BD0460F9E73C000020FA
:104E300010B5044600F032F9A06B28B15FF0000411
:104E400000F04CF9204610BD0124F9E70648416BFB
:104E5000096829B1416BC968C968496881627047AE
:104E60004FF0FF31FAE7000050000020084840688A
:104E7000401C4FF0500080F3118804D0BFF34F8FD7
:104E8000BFF36F8FFEE7BFF34F8FBFF36F8FFEE768
:104E9000440000202DE9F041044600F0FFF894F9A9
:104EA000455004F1240609E0606A48B1304600F03C
:104EB000CBFE08B100F0B4F96D1E6DB2002DF3DC2D
:104EC0004FF0FF3684F8456000F008F900F0E6F88E
:104ED00094F9445004F1100709E0206948B13846BC
:104EE00000F0B2FE08B100F09BF96D1E6DB2002D0E
:104EF000F3DC84F84460BDE8F04100F0EFB8000056
:104F00002DE9F0410546002700F030FA314E3068B7
:104F100008B9FFF7E5FEF06805424BD1C5B3083587
:104F200068070ED005F00700C0F1080005446807C7
:104F300007D0502080F31188BFF34F8FBFF36F8FDE
:104F4000FEE72DB37068854234D822481030014600
:104F50000C6801E020460C466168A94202D2216833
:104F60000029F7D131688C4224D00768216801609C
:104F700060680837411B10290FD96019420708D013
:104F8000502080F31188BFF34F8FBFF36F8FFEE780
:104F900010E041606560FFF725FF61687068401AA6
:104FA0007060B268904200D2B060F06801430020A7
:104FB000C4E9000100F082FE780707D0502080F39A
:104FC0001188BFF34F8FBFF36F8FFEE73846BDE800
:104FD000F08100002C0000200449086818B108681E
:104FE000826C521C826408687047000050000020E8
:104FF00010B5031F4FF080741C601B1F21F00101CE
:105000001960191F024B0B60143940380A6010BD3B
:105010006D4E0008D0E9013201699A60D0E90123A0
:105020005A604A68824201D182684A600022026165
:105030000868401E0860704700F108014FF0FF3219
:10504000C0E90112C16001610021016070470021C7
:105050000161704730B50B685A1C02D000F108029C
:1050600002E0026904E02246546825689D42FAD9AC
:1050700053684B6099608A60516008610168491CFF
:10508000016030BD42684A6093688B6093685960E4
:10509000916008610168491C01607047502080F3ED
:1050A0001188BFF34F8FBFF36F8F0A494868401CC8
:1050B000486001280CD10848006810F0FF0F07D0A5
:1050C000502080F31188BFF34F8FBFF36F8FFEE73F
:1050D000704700004400002004ED00E008494868E3
:1050E00028B1401E486001D180F3118870475020DC
:1050F00080F31188BFF34F8FBFF36F8FFEE700007F
:105100004400002070B5002827D0144DA0F10804F9
:105110006168E868014207D1502080F31188BFF32D
:105120004F8FBFF36F8FFEE722683AB1502080F3B4
:105130001188BFF34F8FBFF36F8FFEE7814361602C
:1051400000F014F960686968084468602046FFF759
:1051500049FEBDE8704000F0B1BD70BD2C000020DC
:1051600006484FF47A710068B0FBF1F14FF0E0208F
:10517000491E41610721016170470000280000209D
:1051800010B5FBF721F8114910280ED300F1E020EB
:1051900090F8F0030A78904207D2502080F31188EB
:1051A000BFF34F8FBFF36F8FFEE709480068896830
:1051B00000F4E060884207D9502080F31188BFF3E3
:1051C0004F8FBFF36F8FFEE710BD0000440000203B
:1051D0000CED00E010B5020014D00F48006B38B1A0
:1051E000502080F31188BFF34F8FBFF36F8FFEE71E
:1051F00000F0BCF800211046FFF756FC00F05EFD01
:10520000002807D105494FF080500860BFF34F8F49
:10521000BFF36F8F10BD00005000002004ED00E0D0
:1052200001490120C86170475000002010B50C46AC
:1052300050B1094909681831FFF70CFF2046BDE855
:1052400010400121FFF730BC502080F31188BFF3DC
:105250004F8FBFF36F8FFEE75000002070B5040042
:1052600039D01D4DE06A2968C96A884233D2A069E5
:10527000002804DB2868C06AC0F10700A061E16A69
:10528000164E01EB8101606906EB810188421FD156
:10529000201DFFF7BFFE012150B9E06A00EB80023C
:1052A00056F8222022B92A6901FA00F082432A61C5
:1052B0002868C06AE0622A6981401143296100EBD5
:1052C000800006EB8000211DBDE87040FFF7DABECC
:1052D0002868C06AE06270BD50000020CC0D00203C
:1052E00028B107490A6A0260C968416070475020C6
:1052F00080F31188BFF34F8FBFF36F8FFEE700007D
:10530000500000201CB515480024CDE9004023467C
:10531000802213A1144800F0ADFB012809D0401CE5
:105320001AD1502080F31188BFF34F8FBFF36F8FD6
:10533000FEE7502080F31188BFF34F8FBFF36F8FCC
:1053400006484FF0FF312C38816201214161C46071
:10535000BDE81C4000F040B81CBD00007C000020EF
:1053600049444C45000000002D4D00080248016BE7
:10537000491C016370470000500000201448016B75
:1053800011B10121C16170470021C1610169B1FA08
:1053900081F1C1F11F0101EB81020E4951F8223068
:1053A0006BB101EB820101F108034A6852684A605F
:1053B0009A4201D152684A60D1680160704750201A
:1053C00080F31188BFF34F8FBFF36F8FFEE70000AC
:1053D00050000020CC0D00201CB519490878019020
:1053E000FF20087008788DF800009DF80000154A2D
:1053F00000F0500010700720906005E09DF800302C
:105400005B008DF80030401E9DF800301B06F5D47F
:10541000000200F4E0609060019808700A4801689A
:1054200041F470010160016841F070410160FFF7D3
:1054300097FE00205060FAF791FE00201CBD00008E
:1054400000E400E04400002020ED00E010B5502012
:1054500080F31188BFF34F8FBFF36F8F00F044FBD1
:1054600018B104494FF080500860002080F3118883
:1054700010BD000004ED00E070B50E46050013D02D
:10548000D6B105FB06F04830FFF73AFD040009D01D
:1054900004F1480120468EB10160C0E90F56012198
:1054A00000F0C4F8204670BD502080F31188BFF38F
:1054B0004F8FBFF36F8FFEE70020E4E70060ECE75B
:1054C0002DE9FF4F002683B09B468A46040003D097
:1054D000BAF1000F08D011E0502080F31188BFF31B
:1054E0004F8FBFF36F8FFEE7206C38B1502080F3F1
:1054F0001188BFF34F8FBFF36F8FFEE700F0E6FA1E
:10550000DFF824814FF000094FF0805748B9059823
:1055100038B1502080F31188BFF34F8FBFF36F8FE6
:10552000FEE7FFF7BBFDA56B45B351462046E66895
:10553000FFF782FBBBF1000F13D0E660606A50B149
:1055400004F1240000F080FB28B1C8F80070BFF31C
:105550004F8FBFF36F8FFFF7C1FD012007B0BDE88C
:10556000F08F6D1EA563206810B9FFF735FD6060F0
:1055700020690028EFD004F11000E3E7059808B196
:105580001EB106E0FFF7AAFD27E06846FFF7A8FE78
:105590000126FFF7A3FDFFF7E9FEFFF77FFD94F972
:1055A0004400401C01D184F8449094F94500401C0B
:1055B00001D184F84590FFF791FD05A9684600F0F8
:1055C00023FA002820460AD0FFF764FC00F076FB9F
:1055D0002046FFF72DFC0028A3D00020BEE7FFF7F0
:1055E00027FCD8B1206830B9FFF758FD6068FFF795
:1055F00035FEFFF773FD04F124000599FFF716FE51
:105600002046FFF747FC00F059FB002889D1C8F875
:105610000070BFF34F8FBFF36F8F82E72046FFF715
:1056200039FC00F04BFB7CE704ED00E070B50D4663
:10563000040025D0FFF732FDD4E90F20216802FBDA
:10564000001161600021A1632168A1600A46D4E9CC
:105650000F01401E00FB0121E16021464FF0FF30A9
:1056600001F8440F487004F110008DB1FFF7E4FC1D
:1056700004F12400FFF7E0FCFFF730FD012070BDCE
:10568000502080F31188BFF34F8FBFF36F8FFEE779
:1056900021690029F0D000F0D7FA0028ECD00449A5
:1056A0004FF080500860BFF34F8FBFF36F8FE3E779
:1056B00004ED00E02DE9FF4782B01D468A464FF019
:1056C0000008040003D0BAF1000F08D011E0502008
:1056D00080F31188BFF34F8FBFF36F8FFEE7206C0D
:1056E00038B1502080F31188BFF34F8FBFF36F8F15
:1056F000FEE7022D0AD1E06B012807D0502080F38D
:105700001188BFF34F8FBFF36F8FFEE700F0DEF914
:105710003F4F4FF000094FF0805648B9049838B118
:10572000502080F31188BFF34F8FBFF36F8FFEE7D8
:10573000FFF7B4FCA06BE16B884207D3022D05D0C4
:105740000498D0B1B8F1000F1AD01EE02A46514695
:105750002046FFF784FA616A19B104F1240000F0D1
:1057600073FA20B13E60BFF34F8FBFF36F8FFFF727
:10577000B5FC012006B0BDE8F087FFF7AFFC22E0E2
:105780006846FFF7ADFD4FF00108FFF7A7FCFFF7F4
:10579000EDFDFFF783FC94F94400401C01D184F82F
:1057A000449094F94500401C01D184F84590FFF7DE
:1057B00095FC04A9684600F027F930B12046FFF7B0
:1057C00069FB00F07BFA0020D4E7FFF767FCA06BD1
:1057D000E16B884213D1FFF781FC04F110000499BA
:1057E000FFF724FD2046FFF755FB00F067FA00287D
:1057F0009ED13E60BFF34F8FBFF36F8F98E7FFF7E7
:105800006DFC2046FFF746FB00F058FA90E70000D9
:1058100004ED00E02DE9F0471F469046894604005C
:1058200003D0B9F1000F08D011E0502080F31188A7
:10583000BFF34F8FBFF36F8FFEE7206C38B150205E
:1058400080F31188BFF34F8FBFF36F8FFEE7022FF6
:105850000AD1E06B012807D0502080F31188BFF3F4
:105860004F8FBFF36F8FFEE7FFF78AFC5020EFF3F7
:10587000118680F31188BFF34F8FBFF36F8FA06B3A
:10588000E16B884206D3022F04D0002086F31188F2
:10589000BDE8F08794F945503A4649462046FFF75F
:1058A000DEF9681C04D06D1C84F845500120EDE73A
:1058B000606A0028FAD004F1240000F0C5F900283D
:1058C000F4D0B8F1000FF1D00121C8F80010EDE7D5
:1058D00070B50E46040009D0206C78B1502080F3DA
:1058E0001188BFF34F8FBFF36F8FFEE7502080F317
:1058F0001188BFF34F8FBFF36F8FFEE7206848B961
:10590000606838B1502080F31188BFF34F8FBFF328
:105910006F8FFEE7FFF734FC5020EFF3118580F323
:105920001188BFF34F8FBFF36F8FA16BE06B88427D
:1059300018D994F94500491CA163411C04D0401CAE
:1059400084F8450001200EE0606A0028FAD004F1D6
:10595000240000F079F90028F4D0002EF2D00120C4
:105960003060EFE7002085F3118870BD2DE9F04726
:1059700090468946040003D0B9F1000F08D011E029
:10598000502080F31188BFF34F8FBFF36F8FFEE776
:10599000206C38B1502080F31188BFF34F8FBFF3D4
:1059A0006F8FFEE7FFF7ECFB5020EFF3118680F3DB
:1059B0001188BFF34F8FBFF36F8FA76BF7B194F9C7
:1059C000445049462046FFF737F97F1EA763681CFD
:1059D00004D06D1C84F84450012010E02069002898
:1059E000FAD004F1100000F02FF90028F4D0B8F13B
:1059F000000FF1D00121C8F80010EDE7002086F378
:105A00001188BDE8F087000070B50D46040019D07C
:105A100005B3FFF743FB164AD1682868431C0FD033
:105A20002368126A934202D062688A421AD9626875
:105A3000891A814216D2401A28602046FFF750FC8E
:105A4000002410E0502080F31188BFF34F8FBFF384
:105A50006F8FFEE7502080F31188BFF34F8FBFF3A5
:105A60006F8FFEE70124FFF739FB204670BD000071
:105A7000500000202DE9FF5F8346DDE90E8799463F
:105A800016468A469000FFF73BFA05001AD05420CC
:105A9000FFF736FA040012D025630021CDE9024158
:105AA000CDE900874B46324651465846FFF752F93A
:105AB0002046FFF731F8012004B0BDE8F09F2846EA
:105AC000FFF720FB4FF0FF30F6E700000548416983
:105AD00019B1006B18B100207047012070470220F7
